:020000040800F2
:1000000000040020010400087504000877040008BB
:10001000790400087B0400087D040008000000004B
:100020000000000000000000000000007F04000845
:100030008104000800000000830400088504000813
:1000400085050008C1030008C1030008A9050008D0
:10005000C1030008C1030008C1030008C103000870
:10006000C1030008C1030008C1030008C103000860
:10007000C1030008C1030008C1030008C103000850
:10008000C1030008C1030008C1030008C103000840
:10009000C1030008C1030008C1030008C103000830
:1000A000C1030008C1030008C1030008C103000820
:1000B0005B050008C1030008C1030008C103000874
:1000C000C1030008C1030008C1030008C103000800
:1000D000C1030008C1030008C10300088904000827
:1000E0003D050008C1030008C1030008C103000862
:1000F000C1030008C1030008C1030008C1030008D0
:10010000C1030008C1030008C1030008C1030008BF
:10011000C1030008C1030008C1030008C1030008AF
:10012000C1030008C1030008C1030008C10300089F
:1001300000000000000000000000000000000000BF
:1001400000000000000000000000000000000000AF
:10015000000000000000000000000000000000009F
:10016000000000000000000000000000000000008F
:10017000000000000000000000000000000000007F
:10018000000000000000000000000000000000006F
:10019000000000000000000000000000000000005F
:1001A000000000000000000000000000000000004F
:1001B000000000000000000000000000000000003F
:1001C000000000000000000000000000000000002F
:1001D000000000000000000000000000000000001F
:0401E0005FF8E0F1F3
:1001E800EFF309800046704780F309887047EFF302
:1001F80008800046704780F308887047EFF3128044
:10020800704780F311887047EFF31080704780F3D0
:1002180010887047EFF31380704780F31388704796
:10022800EFF31480704780F31488704700BA704762
:1002380040BA7047C0BA704790FAA0F07047D0E84B
:100248004F0FC0B27047D0E85F0F80B2704750E8D8
:10025800000F7047C1E8430F18467047C1E8530FB5
:100268001846704741E8000070470000384B82B0DC
:100278001A6842F001021A605968364A0A405A6000
:100288001A6822F0847222F480321A601A6822F402
:1002980080221A605A6822F4FE025A604FF41F0244
:1002A8009A600022009201921A6842F480321A6021
:1002B8001A6802F400320192009A01320092019AFF
:1002C8001AB9009AB2F5A06FF2D11A6812F4003286
:1002D80018BF01220192019A012A05D01E4B4FF046
:1002E80000629A6002B070471C4A116841F0100120
:1002F8001160116821F003011160116841F00201D9
:1003080011605A685A605A685A605A6842F48062A2
:100318005A605A6822F47C125A605A6842F4E81209
:100328005A601A6842F080721A601968084A89018E
:10033800FBD5516821F003015160516841F0020179
:1003480051605A6802F00C02082AFAD1C6E700BFC9
:10035800001002400000FFF800ED00E0002002401D
:10036800114A124B516801F00C01042901D00829E7
:1003780001D00F490EE051685068C1F38341C003B2
:1003880001F1020102D55068800301D5094800E057
:100398000748414319605268C2F303121A4411799D
:1003A8001A68CA401A607047001002400000002016
:1003B80000127A0000093D00FEE70023094A0A49B5
:1003C8009818884204D20949595899500433F5E7D6
:1003D800074B084A934203D2002243F8042BF8E75C
:1003E800704700BF00000020F40E0020DC1B03084B
:1003F800F40E002094140020684620F007018D4672
:1004080001B5FFF733FF064880F30888FFF7D5FFEB
:1004180000F008F8BDE801408546704770470000C5
:10042800000001201FB50021092201A814F016FFC1
:1004380000F0F4FD01A800F0D1F800F06BFE02F026
:100448006FFF00F051FB00F087FC054B01221A708A
:10045800044B1A88044B19889142EED01A80ECE7B5
:10046800F40E00200A0F00207E1000207047FEE7DF
:10047800FEE7FEE7FEE770477047704708F0A0BD4B
:1004880038B5274840F225510FF064FE30B32448B0
:1004980040F225510FF07EFE21480FF0E2FD0D28B5
:1004A8000ED0204C1E4825886B1C23800FF0D9FDE8
:1004B8001D4B585523881F2B0AD10023238007E0A2
:1004C80017480FF0CEFD0D2802D1164B01229A7065
:1004D800134840F2255100220FF065FD104840F204
:1004E80027710FF037FED0B10E4C0D4840F227713E
:1004F8000FF050FEE3780A485A1CE2700B4AD15CB0
:100508000FF0ABFD0A4BE2781B789A4207D10448FA
:1005180040F2277100220FF046FD0023E37038BD3A
:1005280000480040F60E0020101000203010002077
:100538001400002008B54FF400500DF0D9F838B178
:1005480000F08EFABDE808404FF400500DF0DEB818
:1005580008BD08B54FF0804001210FF047FC50B1AD
:10056800054B4FF080401A88012101321A80BDE8FE
:1005780008400FF046BC08BDFE0E002008B57F20DD
:100588000FF040FE044A00231370044A1360BDE8CC
:1005980008400FF04DBE00BFF40E0020100F0020E1
:1005A80008B501200EF058FB20B10A4B0120186055
:1005B8000EF062FB0EF026FB0EF0DEFA064B9842B8
:1005C80006D100200EF0E2FABDE808400EF01ABB92
:1005D80008BD00BF100F00208051010008B50A486F
:1005E80002210DF014FE0128084803D1022114F05D
:1005F80079FB01E002F0BCFA044801F00FFDBDE808
:100608000840024802F0E4BC000C014069100020D8
:1006180010B50EF0F1F84FF480300EF00DF90EF031
:100628005BFA0128044624D110200DF08BF8022033
:100638000DF072F800200EF04DF900200EF05EF972
:100648004FF480600EF050F94FF480304FF4E01111
:100658000EF01EF920460EF025F939200EF028FA82
:100668000028FAD002200EF023F90EF02BF9082802
:10067800FBD110BD70B50021174C4FF000600BF096
:1006880087FF4FF440700BF045FF01252723032611
:10069800204623706670E5700BF046FF1C23204649
:1006A80023706570E5700BF03FFF28232370204608
:1006B80002236370E5700BF037FF26702046002692
:1006C8006670E5700BF030FF0423267063702046D7
:1006D800BDE870400BF028BF0410002070B57C20E6
:1006E8001A4C01210EF0A2F9194D4FF6FF73238021
:1006F80021461023174E1848E3700DF032FD2846A6
:1007080021460DF02EFD304621460DF02AFD2146EA
:1007180012480DF026FD214611480DF022FD4FF438
:1007280040732380304604232146E3700DF019FD01
:1007380002232380284621462823E3700DF011FD6B
:10074800BDE870407C2000210EF070B9EE0F00204B
:10075800000C014000100140000801400014014055
:100768000018014038B5112001210EF05FF94FF44F
:10077800802001211F4C0EF065F91F4801210DF062
:100788007FFD1E4D4FF4806323800323A37028460A
:1007980018232146E3700DF0E4FC4FF40063238036
:1007A800284604232146E3700DF0DBFC1449154C60
:1007B8004FF4E1330B6000238B80CB800B818B815E
:1007C80020460C234B810FF06DFB204601210FF0D2
:1007D800DEFB204640F2255101220FF0E4FB2046C3
:1007E80040F2277101220FF0DEFBBDE838400648D1
:1007F80014F0D2BDEE0F00201000140000100140CC
:10080800F40F00200048004041DF010838B51020EF
:1008180001210EF00BF90C4C0C4914228025CA70EA
:10082800204603228A700D800DF09BFC2946204645
:100838000DF001FD4FF4967008F026FC204629467D
:10084800BDE838400DF0F5BC00100140EE0F002067
:1008580038B50121054620200EF0E8F81349102389
:10086800CB700424032312480C808B700DF079FCA4
:10087800012D15D002D3022D06D038BD21460C48D3
:10088800BDE838400DF0D7BC4FF4967008F0FCFB7B
:10089800074821460DF0CFFC4FF4967008F0F4FBA2
:1008A80021460348BDE838400DF0C3BCEE0F0020D8
:1008B8000014014038B54FF48071044628480DF003
:1008C800A6FC284D4FF40071287025480DF09FFCB8
:1008D8000221687024480DF09AFC0546012D204835
:1008E8004FF4807123D10DF092FC01284FF4007170
:1008F8001B480DD10DF08BFC012803D10023237078
:10090800012301E001232370A371E37108230CE0A4
:100918000DF07DFC01284FF0000303D12370A07176
:10092800E07102E02570A571E571A37038BD0DF086
:100938006EFC01284FF400710948DBD00DF067FC0C
:10094800012806D10223A37000232370A071E0714F
:1009580038BD0323A37001232370A371E37138BD4D
:1009680000100140FC0E0020000C0140012008B5D9
:1009780001460EF067F80C4963238B8047230B80F0
:100988004FF080400023CB804B800EF041FD4FF0AC
:10099800804001210EF0B9FEBDE8084001214FF06A
:1009A80080400A460EF0CBBEE40F002038B5064B57
:1009B800002205465A801C466188A94203D2034892
:1009C80014F0A6FCF8E738BDFC0E002057DF01083C
:1009D8000C4910B504234FF400540B48CB700C801D
:1009E8000DF0BFFB01200D210DF07AFC0748002314
:1009F80003710C2304604371BDE810400123837127
:100A08000CF01EBEEE0F0020000C01400810002064
:100A180008B5FFF7ABFFBDE80840FFF7D9BF30B511
:100A28000A4A1378013BDBB2137073B90849094CC1
:100A380008782578084C255408241470421CD2B232
:100A4800042A0A7004BF054A137030BD73100020D1
:100A5800671000207410002081100020641000200E
:100A680070B51B4E4FF080400021002475880EF0B1
:100A78004CFE4FF080408484012174800EF045FEC6
:100A8800144B1A786AB9843D022D20D801211970B7
:100A9800114B20211970114B08211970104B1A7035
:100AA80070BDA5F10A02022A03D80E4B1A78520823
:100AB80007E0153D022D09D80A4B1A78520862F052
:100AC8007F021A70BDE87040FFF7A9BF1C7070BDA7
:100AD800FC0E002064100020651000207310002018
:100AE8006710002074100020F8B57F4E7F4CB37853
:100AF80022799A4247D071783278090441EA026132
:100B0800F2780125114341EA03217948657114F00F
:100B1800FFFBB278774B2271363A1B2A23D8DFE8DD
:100B280002F00E102222222222222222221214163F
:100B3800181A1C1E222222222222222222209D70E2
:100B480011E002220EE003220CE004220AE0052252
:100B580008E0062206E0072204E0082202E0092253
:100B680000E000229A709A78A179634B63485A543E
:100B780014F0CEFBA3795D4D0133DBB2142B88BF93
:100B88000023AB7105E063791BB10123E3710023F6
:100B98006371E379554D002B00F0A5803378524FEF
:100BA800682B40F0A0807B78722B40F09C80FA780C
:100BB800BB78D243D2B2934240F09580052B20D027
:100BC800132B40F08C804E4814F0E6FB2F7A4D48EA
:100BD80047B939460BF0C7FA4B4839460BF0C3FA08
:100BE800012307E001210BF0BEFA474801210BF071
:100BF800BAFA00232B720023B3702371A371E37137
:100C0800F8BD3D4C414E6278237802F5FA6203EB59
:100C1800830302EB4301A378E27803EB830302EB3F
:100C2800430373802379627903EB830302EB430365
:100C38000820B38031800BF0B1FE71880C200BF0D6
:100C4800ADFEB18810200BF0A9FEA179E37901EB84
:100C5800810103EB41012E4BC9B2227A1970637AE4
:100C680002EB820203EB4202A37AE07A294E03EBFD
:100C78008303D2B200EB43033C20327042434FF46B
:100C8800616000FB0122244CDBB26B7223481344E1
:100C9800236014F03DFB3178214814F039FB697A60
:100CA800204814F035FB21681F4814F031FB4FF63B
:100CB800FF7104200BF072FE0DF0A4FF20680DF008
:100CC80065FF0DF09FFF04204AF2A5510BF066FE68
:100CD80002F066FB00232B71BB70AB7102E00023AE
:100CE800BB702B71EB71F8BD81100020FC0E002049
:100CF8006DDF0108851000205010002081DF0108F9
:100D080097DF010838130020D813002016000020B0
:100D18007C1000207210002078100020A8DF010845
:100D2800B9DF0108C9DF0108D9DF010808B50121C9
:100D38004FF400600DF086FE4FF4C0700FF03FFADC
:100D480041200FF045FA7F200FF064FA0FF070FA97
:100D5800BDE808400FF050BA38B5114C11484FF4AF
:100D6800807125780DF053FA85420ED00E4814F0A4
:100D780013FB40F6B83008F087F9A37A73B9FFF788
:100D8800D5FF074B01229A7208E006484FF400711C
:100D980065780DF03CFA8542E8D138BD38BD00BF12
:100DA800FC0E002000100140EBDF010808B501210E
:100DB8004FF0C0500DF046FE01200DF0C2FC0BF0C4
:100DC800BBFD01200DF0C0FD41200DF071FE002893
:100DD800FAD04FF480700DF0CDFD01200DF0D2FD5A
:100DE8000DF018FF0DF00EFF012001460DF0A4FED6
:100DF8000DF008FF47F6FF700DF0D8FEBDE808407B
:100E08000DF000BF08B50DF0FDFE4CF250300DF0AE
:100E1800BDFEBDE808400DF0F5BE4CF250307047FD
:100E28000C4B4FF4C8721B88B3FBF2F102FB113272
:100E380092B262B16422B3FBF2F002FB103080B2CE
:100E480030B113F0030F14BF0020012070470120B8
:100E5800704700BF16000020F0B5054685B0082091
:100E68000BF0AAFD3C4C4FF4616720800C200BF07E
:100E7800A3FD608010200BF09FFDB5FBF7F207FB88
:100E88001257364E3C2193B2B7FBF1F2F28101FBC7
:100E98001272172BA080B381328205D91822B3FBB6
:100EA800F2F102FB1133B3816DB90130A0802188C2
:100EB80008200BF073FD0C2061880BF06FFD1020EB
:100EC800A1880BF06BFD6588234F25F002039BB2C8
:100ED800012B08D0052D06D0EA1F012A03D90A2DB7
:100EE80001D00C2D12D1A2881B4B1F2A03D9013522
:100EF80001225D809A806288174B0C2A1ED9012234
:100F08009A805A801A8801321A8017E0042B01D07F
:100F1800092B08D1A288104B1E2A0FD9012215448B
:100F28009A805D800AE0BB881D2B07D13878FFF7CF
:100F380077FF18B9013501237D80BB80B0892188EE
:100F48000090F08962880190308AA3880290044852
:100F580014F0DEF905B0F0BD16000020FC0E0020EC
:100F68000BE0010810B5054C6369012B05D10DF0A4
:100F780003FEFFF771FF0023636110BDFC0E002024
:100F880010B504200BF018FD4AF2A554A0420ED06B
:100F98001D4814F001FAFFF709FF1C4814F0FCF98A
:100FA800FFF730FF042021460BF0F8FC17E07B2008
:100FB8000DF07EFD08B1164804E07A200DF078FDAA
:100FC80010B1144814F0E8F9134814F0E5F90DF0DD
:100FD80021FE012001460DF0AFFD0DF013FE0121A9
:100FE8004FF0C0500DF02EFD01200DF0AAFB00209F
:100FF8000BF0B0FC80200BF0B9FC0DF085FDBDE8CE
:101008001040FFF7AFBF00BF3CE0010858E00108FF
:101018006CE0010889E00108A6E0010808B5FFF7BF
:10102800F7FAFFF727FBFFF759FBFFF79BFB00F0E9
:10103800D3FCFFF7EDFCFFF7A3FF0120FFF708FC47
:10104800FFF7E4FBBDE808400148FFF733BC00BFE9
:101058006910002010B51D4814F09EF91C4C1D485D
:1010680014F09AF91C4814F097F9204614F094F9F2
:101078001A4814F091F91A4814F08EF9194814F026
:101088008BF9194814F088F9184814F085F92046A6
:1010980014F082F9164814F07FF9164814F07CF918
:1010A800154814F079F9154814F076F9144814F035
:1010B80073F9144814F070F9134814F06DF91348D3
:1010C80014F06AF9124B01221A7610BDC4E0010827
:1010D8006CE10108FCE0010834E10108A4E1010821
:1010E800DCE1010814E201084CE2010884E201088D
:1010F800BCE20108F4E201082CE3010864E30108FA
:101108009CE30108D4E301080CE4010844E4010865
:10111800FC0E00202DE9F341454D2B78012B40F0C2
:101128009983444C2378682B00F00E8310D8612BE8
:1011380000F07882642B40F087833F4814F02CF944
:101148003E4814F029F93E4814F026F9002409E035
:10115800722B00F01B83742B00F08080692B40F009
:101168007383A7E1C02021460DF1060209F06CFE49
:1011780014F00F0603D13348214614F0C9F8324B56
:10118800324A33480F2E18BF1A46BDF806100134EC
:1011980014F0BEF8B4F5807FE4D12E4814F0FCF8C2
:1011A800264814F0F9F8264814F0F6F80024C2206E
:1011B80021460DF1060209F047FE14F00F0603D18F
:1011C8002048214614F0A4F81F4B204A20480F2E2F
:1011D80018BF1A46BDF80610013414F099F8B4F592
:1011E800806FE4D11C4814F0D7F8144814F0D4F8F0
:1011F800134814F0D1F80024C42021460DF106024A
:1012080009F022FE14F00F0603D10E48214614F00F
:101218007FF80D4B0D4A0E480F2E18BF1A46BDF821
:101228000610013414F074F8B4F5007FE4D186E2B6
:10123800F80E0020101000207CE40108A5E4010845
:10124800FBE4010851E5010856E5010894DF0108AF
:1012580058E501085FE5010889E501089E4814F092
:101268009BF89E4814F098F89D4814F095F80024CF
:101278004C2021460DF1060200F056FE14F00F0531
:1012880003D19848214614F043F8974B974A984859
:101298000F2D18BF1A469DF80610013414F038F8BF
:1012A800B4F5807FE4D1934814F076F88B4814F0B5
:1012B80073F88B4814F070F80024222021460DF1B1
:1012C800060200F031FE14F00F0503D185482146CF
:1012D80014F01EF8844B854A85480F2D18BF1A460E
:1012E8009DF80610013414F013F8B4F5807FE4D1AA
:1012F800814814F051F8794814F04EF8784814F001
:101308004BF80024342021460DF1060200F00CFEB3
:1013180014F00F0503D17348214613F0F9FF724BFF
:10132800724A73480F2D18BF1A469DF806100134EB
:1013380013F0EEFFB4F5807FE4D1704814F02CF878
:10134800664814F029F8664814F026F8002432207C
:1013580021460DF1060200F0E7FD14F00F0503D158
:101368006048214613F0D4FF5F4B604A60480F2D58
:1013780018BF1A469DF80610013413F0C9FFB4F5DA
:10138800807FE4D15E4814F007F8544814F004F85C
:10139800534814F001F80024182021460DF10602E4
:1013A80000F0C2FD14F00F0503D14E48214613F09A
:1013B800AFFF4D4B4D4A4E480F2D18BF1A469DF8AA
:1013C8000610013413F0A4FFB4F5807FE4D14D4832
:1013D80013F0E2FF414813F0DFFF414813F0DCFF50
:1013E80000243B2021460DF1060200F09DFD14F07B
:1013F8000F0503D13B48214613F08AFF3A4B3B4A7D
:101408003B480F2D18BF1A469DF80610013413F0FB
:101418007FFFB4F5807FE4D13B4813F0BDFF2F4830
:1014280013F0BAFF2E4813F0B7FF002436202146E8
:101438000DF1060200F078FD14F00F0503D12948DC
:10144800214613F065FF284B284A29480F2D18BF5D
:101458001A469DF80610013413F05AFFB4F5807F40
:10146800E4D12A4813F098FF1C4813F095FF1C4854
:1014780013F092FF0024402021460DF1060200F0EF
:1014880053FD14F00F0503D11648214613F040FF11
:10149800154B164A16480F2D18BF1A469DF8061008
:1014A800013413F035FFB4F5807FE4D1184A0023E6
:1014B800137046E16378632B40F0B080E37A772BB2
:1014C80073D1144813F068FFA378312B24D0322B42
:1014D8000CBFC426C02620E0B2E50108A5E4010837
:1014E800FBE4010851E5010856E5010894DF01080D
:1014F80058E50108DCE5010806E6010832E60108BE
:101508005DE6010889E60108BBE60108E7E601088F
:10151800F80E002012E70108C22631468E4813F063
:10152800F7FE8E4B03F10B0113F8012BA2F16100BA
:10153800052894BF573A303A8B4203F8012CF3D16F
:101548002779E3783F0247EA0337A379E2791F4313
:101558006379834847EA0317237ABFB21B0243EA39
:101568000233A27A39461343627A5FFA86F843EA6D
:101578000213ADF8063002AE13F0CAFEBDF806102D
:10158800784813F0C5FE36F8022D3946404609F072
:10159800E0FC39463246404609F056FC7248BDF830
:1015A800061013F0B5FE30233AE0E379722B35D1FB
:1015B8006E4813F0F1FEA3786748313BDBB2022B8B
:1015C80096BF6B4AC026D65C314613F0A1FE634B2A
:1015D800191D13F8012BA2F16100052894BF573A91
:1015E800303A8B4203F8012CF3D12779E3783F0294
:1015F80047EA0337A3795A481F43637947EA031731
:10160800BFB2394613F084FE394630460DF1060262
:1016180009F01AFC5448BDF806104DE03023E37178
:10162800E3728CE06378632B40F08680E379772B54
:1016380046D1504813F0B0FEA3784748313BDBB29F
:10164800062B97BF4A4A98269B18DE78314613F036
:101658005FFE424B191D13F8012BA2F1610005280A
:1016680094BF573A303A8B4203F8012CF3D12379CF
:10167800E778627943EA0717A379FFB243EA0213CE
:1016880039463D488DF806304FEA560813F040FEBB
:1016980002AE9DF80610394813F03AFE16F8022DEE
:1016A8003946404600F056FB39464046324600F07F
:1016B8003BFC2D489DF8061013F02AFE30233DE030
:1016C8006379722B38D1294813F066FEA378224833
:1016D800313BDBB2062B97BF254A98269B189E7A8A
:1016E800314613F015FEE378254AA3F16101052977
:1016F8008CBF303B573BD3702379214AA3F161015A
:1017080005298CBF303B573B13712379E7781A487A
:1017180043EA0717FFB2394613F0FAFD39460DF1CF
:101728000602700800F000FC0F489DF8061013F040
:10173800EFFD3023637102E030236371E37100230E
:101748002B70104A138085E00F4B1B7E002B40F056
:101758008780FFF77FFC83E022E701081310002051
:101768002DE701083FE7010852E7010866E701088D
:1017780030DF010817E7010875E7010887E7010866
:1017880010100020F60E0020FC0E00206378742B49
:1017980002D0A378632B57D1E3782279303B303AD3
:1017A80003EB830302EB43032F4AA67A1370637992
:1017B800A279303B303A03EB830302EB43032B4A15
:1017C800303E1370E379227A303B303A03EB8303DF
:1017D80002EB4303264A277B1370637A303F303B82
:1017E80003EB830306EB4306224BF6B21E70E37A43
:1017F800A27B303B03EB830307EB43071E4BFFB28F
:101808001F70637B303A303B03EB830302EB4304E6
:101818001A4B4FF6FF710420E4B25C720BF0BEF86D
:101828000DF0F0F93C235F434FF4616303FB06704E
:1018380020440DF0ABF90DF0E5F904204AF2A5516A
:101848000BF0ACF801F0ACFD0D4A002313800B4AF5
:101858002B7013760B4840F2255101220EF0A3FBA2
:1018680002B0BDE8F08100BF6810002080100020A1
:10187800661000207C10002072100020FC0E002052
:10188800F60E0020004800404FF0FF3070474FF43C
:1018980000534B6000207047022804D9034B0922EB
:1018A8001A60002070470120704700BF9014002084
:1018B800024B1F221A604FF0FF307047901400202F
:1018C8000020704710B560B9904207DA084B1C88B1
:1018D800A406FBD59B880B540130F5E722EAE27099
:1018E80010BD044B09221A604FF0FF3010BD00BF35
:1018F80000480040901400204FF400534B60002033
:1019080070474FF0FF307047024B02221A604FF0C9
:10191800FF30704790140020024B0A221A604FF0E3
:10192800FF30704790140020012810B503D002281A
:1019380017D1002311E00023934210DA0C480488E1
:101948002406FBD5CC5C01338480F5E7084804887D
:101958002406FBD5CC5C013384809342F6DB104629
:1019680010BD044B09221A604FF0FF3010BD00BFB4
:10197800004800409014002008B5012002490422C4
:10198800FFF7D2FFFEE700BF9AE7010870B50E4CDB
:10199800064623680BB90D4B23602568FEF727FC24
:1019A8002368334483420AD9094919220220FFF7E0
:1019B800BBFF084B0C221A604FF0FF3070BD024A83
:1019C8002846136070BD00BF180F00209414002033
:1019D8009FE701089014002070B50820194C1A4D93
:1019E80001210DF023F8C023238003261C23284659
:1019F8002146A670E3700CF0B4FB4FF440632380DB
:101A08001423A670E37028462146104C0CF0A9FB5D
:101A18004BF6FF73E3804FF4806363810C4B002522
:101A28004FF4804621460B48A5802581A681236076
:101A38000CF08AFCA681258121460748BDE8704044
:101A48000CF082BCEE0F0020000C01408C1000202E
:101A5800801A0600005400400058004013B51423B3
:101A6800144C8DF807304FF44063ADF8043020462D
:101A7800032301A98DF806300CF073FB20464FF4C0
:101A880000610CF0D6FB20464FF480610CF0D1FBCE
:101A9800012007F09FFA20464FF400610CF0CBFBC1
:101AA800012007F097FA20464FF480610CF0C3FB41
:101AB80002B010BD000C014013B51423124C8DF870
:101AC8000730C023ADF804302046032301A98DF860
:101AD80006300CF046FB204680210CF0AAFB20467D
:101AE80040210CF0A6FB012007F074FA2046802163
:101AF8000CF0A1FB012007F06DFA204640210CF004
:101B08009AFB02B010BD00BF000C014010B50C4C90
:101B18004FF4006120460CF08EFB012007F05AFAC2
:101B280020464FF480610CF084FB012007F052FA44
:101B380020464FF40061BDE810400CF07ABB00BFAE
:101B4800000C014010B50A4C802120460CF073FBB4
:101B5800012007F03FFA204640210CF06AFB0120E3
:101B680007F038FA20468021BDE810400CF061BB30
:101B7800000C014038B5054608242B060E484FF4E2
:101B8800006102D50CF055FB01E00CF054FB01207C
:101B980007F020FA4FF4806107480CF04AFB012057
:101BA80007F018FA04484FF480610CF044FB013C3C
:101BB8004FEA4505E1D138BD000C014038B505466E
:101BC80008242B060D484FF0800102D50CF031FB9C
:101BD80001E00CF030FB012007F0FCF94021074838
:101BE8000CF027FB012007F0F5F9044840210CF020
:101BF80022FB013C4FEA4505E3D138BD000C01400A
:101C080008B528B90E484FF400610CF014FB04E045
:101C18000B484FF400610CF00CFB012007F0DAF9D7
:101C28004FF4806106480CF004FB012007F0D2F95C
:101C3800BDE8084002484FF480610CF0FCBA00BFD0
:101C4800000C0140F8B507460C4615461E46FFF73E
:101C580005FF780000F0FE00FFF78CFF0020FFF77B
:101C6800CFFFC4F30720FFF785FF0020FFF7C8FF69
:101C7800E0B2FFF77FFF0020FFF7C2FF0024721ECB
:101C8800944209D284F00103E85CFFF773FF002057
:101C9800FFF7B6FF0134F2E782F00102A85CFFF714
:101CA80069FF0120FFF7ACFFFFF730FF0120F8BD07
:101CB800F8B507460C4616461D46FFF7CFFE7800D6
:101CC80000F0FE00FFF756FF0020FFF799FFC4F36E
:101CD8000720FFF74FFF0020FFF792FFE0B2FFF762
:101CE80049FF0020FFF78CFF00246B1E9C4207D29F
:101CF800305DFFF73FFF0020FFF782FF0134F4E774
:101D0800354415F8010CFFF735FF0120FFF778FF80
:101D1800FFF7FCFE0120F8BD08B520B90C4880216A
:101D28000CF089FA03E00A4880210CF082FA0120BD
:101D380007F050F9402106480CF07BFA012007F023
:101D480049F9BDE80840024840210CF074BA00BFC8
:101D5800000C014070B505460C461646FFF7ACFE70
:101D6800680000F0FE00FFF729FF0020FFF7D4FF0E
:101D78002046FFF723FF0020FFF7CEFF3046FFF78E
:101D88001DFF0120FFF7C8FFFFF7DCFE012070BD33
:101D980073B504238DF807304FF40063ADF80430B1
:101DA8001E48032301A98DF806300CF0DAF908253E
:101DB80000244FF4006119480CF029FA0646012066
:101DC80007F008F94FF4806114480CF032FA01204A
:101DD80007F000F911484FF480610CF02CFA640008
:101DE8000120013D012E08BF44F0010407F0F2F87C
:101DF80015F0FF05E4B2DCD110238DF807304FF45D
:101E08004063ADF804300548032301A98DF8063076
:101E18000CF0A7F9204602B070BD00BF000C0140CD
:101E2800F8B506467600F6B20C4615461F46FFF78B
:101E380015FE3046FFF79EFE0020FFF7E1FEC4F3D3
:101E48000720FFF797FE0020FFF7DAFEE0B2FFF762
:101E580091FE0020FFF7D4FEFFF700FE46F00100D8
:101E6800FFF788FE0020FFF7CBFE0024E2B27B1EBE
:101E78009A4204F1010482F0010207DAD6B2FFF7B0
:101E880087FFA8550020FFF7BBFEEFE7D4B2FFF7A6
:101E98007FFF28550120FFF7B3FEFFF737FE01202B
:101EA800F8BD73B548238DF807308023ADF80430AA
:101EB8001C48022301A98DF806300CF052F90825B8
:101EC8000024802117480CF0A2F90646012007F0EB
:101ED80081F8402113480CF0ACF9012007F07AF89A
:101EE800104840210CF0A7F964000120013D012EA3
:101EF80008BF44F0010407F06DF815F0FF05E4B2DF
:101F0800DFD110238DF80730C023ADF80430054821
:101F1800032301A98DF806300CF023F9204602B0FE
:101F280070BD00BF000C014070B5044664000E4649
:101F38001546FFF7C1FD04F0FE00FFF73FFE002045
:101F4800FFF7EAFE3046FFF739FE0020FFF7E4FE10
:101F5800FFF7B2FD44F00100C0B2FFF72FFE0020EA
:101F6800FFF7DAFEFFF79DFF28700120FFF7D4FE88
:101F7800FFF7E8FD012070BD10B5094C002120468F
:101F8800182213F06BF91F23A370012323716371C7
:101F9800044B204623610021BDE810400AF025BA11
:101FA8009C1000208010800010B5FF2104460122FB
:101FB8003120FFF7CFFEA37931204A210BB11F2230
:101FC80000E00F22FFF7C6FE4B213A223120FFF72F
:101FD800C1FE482161223120FFF7BCFE4821602262
:101FE8003120FFF7B7FE462107223120FFF7B2FE66
:101FF8004E2101223120FFF7ADFE4F211B22312057
:10200800FFF7A8FE512100223120FFF7A3FEBDE80B
:102018001040312052216722FFF79CBE10B5FF21E6
:10202800044600223120FFF795FE02212F2231209D
:10203800FFF790FE2046FFF7B7FF06223120FF2169
:10204800FFF788FE2278E379F2B9012B0ED0FF2141
:1020580001223120FFF77EFE31204F21FB22FFF7BE
:1020680079FEBDE81040104813F096B9A379012B0A
:10207800EDD11446802CE1B2E9D00C4B31201A5D29
:10208800FFF768FE0134F5E7012BE0D1A379012BB6
:10209800DDD10024802CE1B2D9D0054B31201A5D66
:1020A800FFF758FE0134F5E7B9E80108B9E7010878
:1020B80039E8010870B504460D461646B44208D200
:1020C8002146302015F8012B0134FFF743FEE4B216
:1020D800F4E770BD08B5FF2100223020FFF73AFE73
:1020E8000821A0223020FFF735FE0921A022302048
:1020F800FFF730FE0A21A0223020FFF72BFE0B212C
:10210800A0223020FFF726FE0C21FE223020FFF708
:1021180021FE0D21FE223020FFF71CFE0E21FE229B
:102128003020FFF717FE0F21FE223020FFF712FEA6
:10213800102188223020FFF70DFE1121882230203F
:10214800FFF708FE122188223020FFF703FE132133
:1021580088223020FFF7FEFD1C21A4223020FFF743
:10216800F9FD1D21A4223020FFF7F4FD3020442181
:102178000246FFF7EFFD302045210246FFF7EAFD52
:10218800302046210246FFF7E5FD30204721024670
:10219800FFF7E0FD302048210246FFF7DBFD302045
:1021A80049210246FFF7D6FD30204A210246FFF7B3
:1021B800D1FD30204B210246FFF7CCFD352182228C
:1021C8003020FFF7C7FD402101223020FFF7C2FD74
:1021D800412101223020FFF7BDFD4221012230209C
:1021E800FFF7B8FD432101223020FFF7B3FD4C2152
:1021F80000223020FFF7AEFD4D2100223020FFF7EE
:10220800A9FD4E2100223020FFF7A4FD4F21002216
:102218003020FFF79FFD502100223020FFF79AFD64
:10222800512100223020FFF795FD52210022302055
:10223800FFF790FD532100223020FFF78BFD54213A
:10224800F1223020FFF786FD642108223020FFF7B5
:1022580081FD652108223020FFF77CFD66210822D8
:102268003020FFF777FD672108223020FFF772FD45
:10227800FF2103223020FFF76DFD2021842230202A
:10228800FFF768FD2521DC223020FFF763FD982148
:1022980080223020FFF75EFD992188223020FFF749
:1022A80059FD3020C1210246FFF754FDC2210C22FE
:1022B8003020FFF74FFDC32150223020FFF74AFDA1
:1022C800C72150223020FFF745FDC82120223020A9
:1022D800FFF740FDCC2120223020FFF73BFDCD2128
:1022E80020223020FFF736FDCE2114223020FFF7C0
:1022F80031FDFF2104223020FFF72CFD602144220C
:102308003020FFF727FD612144223020FFF722FD0E
:10231800622144223020FFF71DFD63214422302032
:10232800FFF718FD642155223020FFF713FD6521C2
:1023380055223020FFF70EFD662155223020FFF789
:1023480009FD672155223020FFF704FD682144224A
:102358003020FFF7FFFC692144223020FFF7FAFC08
:102368006A2144223020FFF7F5FC6B2144223020FB
:10237800FFF7F0FC6C2133223020FFF7EBFC6D21D6
:1023880033223020FFF7E6FC6E2133223020FFF79E
:10239800E1FCBDE8084030206F213322FFF7DABCAA
:1023A80008B5FF2100223020FFF7D4FC0821DD22E8
:1023B8003020FFF7CFFC0921DD223020FFF7CAFCCF
:1023C8000A21DD223020FFF7C5FC0B21DD22302059
:1023D800FFF7C0FC0C21F8223020FFF7BBFC0D21D1
:1023E800F8223020FFF7B6FC0E21F8223020FFF744
:1023F800B1FC0F21F8223020FFF7ACFC102180221D
:102408003020FFF7A7FC112180223020FFF7A2FC23
:10241800122180223020FFF79DFC132180223020DA
:10242800FFF798FC1C21A2223020FFF793FC1D2106
:10243800A2223020FFF78EFC302044210246FFF70D
:1024480089FC302045210246FFF784FC30204621D4
:102458000246FFF77FFC302047210246FFF77AFC4F
:10246800482100223020FFF775FC49210022302046
:10247800FFF770FC4A2100223020FFF76BFC4B214C
:1024880000223020FFF766FC352102223020FFF7BA
:1024980061FC402100223020FFF75CFC4121002232
:1024A8003020FFF757FC422100223020FFF752FC72
:1024B800432100223020FFF74DFC4C21042230201C
:1024C800FFF748FC4D2104223020FFF743FC4E2142
:1024D80004223020FFF73EFC4F2104223020FFF772
:1024E80039FC502104223020FFF734FC512104220A
:1024F8003020FFF72FFC522104223020FFF72AFC5E
:10250800532104223020FFF725FC542101223020DA
:10251800FFF720FC64210D223020FFF71BFC65210A
:102528000D223020FFF716FC66210D223020FFF720
:1025380011FC67210D223020FFF70CFCFF2103223C
:102548003020FFF707FC202180223020FFF702FC13
:102558002521CC223020FFF7FDFBC121102230209D
:10256800FFF7F8FBC2210E223020FFF7F3FBC3214F
:1025780070223020FFF7EEFBC7215C223020FFF7E6
:10258800E9FBCB2140223020FFF7E4FBCC211022CD
:102598003020FFF7DFFBCD2108223020FFF7DAFBE0
:1025A800BDE808403020CE210422FFF7D3BB08B590
:1025B800FF2101223020FFF7CDFB48216022302087
:1025C800FFF7C8FB4A2122223020FFF7C3FB4B212B
:1025D80020223020FFF7BEFB482161223020FFF780
:1025E800B9FB482160223020FFF7B4FB4821402284
:1025F8003020FFF7AFFB492102223020FFF7AAFB6A
:10260800482160223020FFF7A5FB49210022302015
:10261800FFF7A0FB482140223020FFF79BFB482111
:1026280060223020FFF796FB5E2180223020FFF7E2
:1026380091FBBDE80840302038211022FFF78ABB03
:1026480008B5FF2101223020FFF784FB48216022D2
:102658003020FFF77FFB4A2103223020FFF77AFB67
:102668004B2110223020FFF775FB482161223020D2
:10267800FFF770FB642006F007FD48216022302038
:10268800FFF768FB482140223020FFF763FB492110
:1026980002223020FFF75EFB1E2006F0F5FC4821E1
:1026A80060223020FFF756FB492100223020FFF737
:1026B80051FB1E2006F0E8FC482140223020FFF79D
:1026C80049FB1E2006F0E0FC482160223020FFF77D
:1026D80041FB3E2180223020FFF73CFBBDE808404B
:1026E800302038211822FFF735BB08B5FF21012219
:1026F8003020FFF72FFB442100223020FFF72AFB70
:10270800452111223020FFF725FB472122223020C6
:10271800FFF720FB502177223020FFF71BFB5121C8
:1027280000223020FFF716FBC02110223020FFF7CF
:1027380011FBC12110223020FFF70CFBC2213222ED
:102748003020FFF707FBC32132223020FFF702FBBE
:10275800C82122223020FFF7FDFACC215022302058
:10276800FFF7F8FACD2150223020FFF7F3FAD321F2
:1027780000223020FFF7EEFADF2100223020FFF799
:10278800E9FAFF2102223020FFF7E4FA162100229D
:102798003020FFF7DFFA172100223020FFF7DAFA9E
:1027A800FF2103223020FFF7D5FA0521202230200F
:1027B800FFF7D0FA1B2120223020FFF7CBFA502157
:1027C80084223020FFF7C6FA5C2100223020FFF770
:1027D800C1FA5F2100223020FFF7BCFAFF21042252
:1027E8003020FFF7B7FA402100223020FFF7B2FA75
:1027F800412100223020FFF7ADFA44218822302001
:10280800FFF7A8FA452188223020FFF7A3FA4621CE
:1028180088223020FFF79EFA472151223020FFF707
:1028280099FA482188223020FFF794FA4921882212
:102838003020FFF78FFA4A2188223020FFF78AFAE2
:10284800BDE8084030204B215122FFF783BA08B574
:10285800FF2100223020FFF77DFA1821882230203E
:10286800FFF778FA192188223020FFF773FAFF2141
:1028780002223020FFF76EFA1221FF223020FFF7E4
:1028880069FAFF2103223020FFF764FA5321FF225F
:102898003020FFF75FFA622121223020FFF75AFA31
:1028A800632100223020FFF755FABDE808403020A8
:1028B8006A210022FFF74EBA08B5FF210122302015
:1028C800FFF748FAC02110223020FFF743FAC12150
:1028D80010223020FFF73EFAC22132223020FFF7C3
:1028E80039FAC32132223020FFF734FAC8210022F6
:1028F8003020FFF72FFACC2100223020FFF72AFAE8
:102908003020CD210022FFF725FABDE80840FFF767
:1029180097BE08B5FF2100223020FFF71BFA0821D7
:1029280060223020FFF716FA092160223020FFF7D5
:1029380011FA0A2160223020FFF70CFA0B216022DD
:102948003020FFF707FA552110223020FFF702FA4E
:10295800562110223020FFF7FDF91A2133223020AA
:10296800FFF7F8F91B2133223020FFF7F3F936215E
:102978000B223020FFF7EEF95C219E223020FFF772
:10298800E9F95D219E223020FFF7E4F95E219E22BD
:102998003020FFF7DFF95F219E223020FFF7DAF9B8
:1029A80064218D223020FFF7D5F965218D22302052
:1029B800FFF7D0F966218D223020FFF7CBF9672188
:1029C8008D223020FFF7C6F9182100223020FFF7AA
:1029D800C1F9192100223020FFF7BCF935218222E4
:1029E8003020FFF7B7F9FF2101223020FFF7B2F9B5
:1029F800442100223020FFF7ADF94521CC223020B8
:102A0800FFF7A8F9472155223020FFF7A3F95021F5
:102A180055223020FFF79EF9512100223020FFF780
:102A280099F9C02100223020FFF794F9C121002232
:102A38003020FFF78FF9C22100223020FFF78AF9F2
:102A4800C32100223020FFF785F9C8210022302059
:102A5800FFF780F9CC2140223020FFF77BF9CD2108
:102A680040223020FFF776F9D321FF223020FFF7EC
:102A780071F9DF2180223020FFF76CF9FF21022253
:102A88003020FFF767F9162155223020FFF762F949
:102A9800172155223020FFF75DF9FF21032230204E
:102AA800FFF758F9052124223020FFF753F91B219D
:102AB80008223020FFF74EF9502104223020FFF77A
:102AC80049F95C2100223020FFF744F95F210022F8
:102AD8003020FFF73FF9532100223020FFF73AF961
:102AE800622120223020FFF735F9632100223020AF
:102AF800FFF730F9FF2104223020FFF72BF940219E
:102B080000223020FFF726F9BDE808403020412197
:102B18000F22FFF71FB908B5FF2101223020FFF768
:102B280019F9C02110223020FFF714F9C121102211
:102B38003020FFF70FF9C22132223020FFF70AF9BF
:102B4800C32132223020FFF705F9C82100223020A6
:102B5800FFF700F9CC2150223020FFF7FBF8302096
:102B6800CD215022FFF7F6F8BDE80840FFF768BD11
:102B780038B583780446082B4FF030004FF0FF013A
:102B88004FF0000240F0B180FFF7E4F8CA4B21781B
:102B9800A3F58075002081420CBF19462946FE2204
:102BA800FFF788FAFF2101223020FFF7D3F82178B8
:102BB80005F5007305F54072002081420CBF1146EF
:102BC8001946FE22FFF776FABC2100223020FFF7D3
:102BD800C1F8BD2100223020FFF7BCF8BE21002239
:102BE8003020FFF7B7F8BF2100223020FFF7B2F8F6
:102BF800FF2101223020FFF7ADF848216022302064
:102C0800FFF7A8F8482140223020FFF7A3F8492110
:102C180002223020FFF79EF8642006F035FA48219A
:102C280060223020FFF796F8492100223020FFF774
:102C380091F81E2006F028FA482140223020FFF79C
:102C480089F81E2006F020FA482160223020FFF77C
:102C580081F8FF2102223020FFF77CF8217805F562
:102C6800806305F5A062002081420CBF1146194619
:102C7800FE22FFF71FFAFF2103223020FFF76AF830
:102C8800217805F5C06305F5E062002081420CBF9C
:102C980011461946FE22FFF70DFAFF2104223020C3
:102CA800FFF758F8217805F5006305F51062002054
:102CB80081420CBF11461946FE22FFF7FBF9FF219E
:102CC80005223020FFF746F8217805F5306300200B
:102CD80005F5206581420CBF19462946FE22FFF7FB
:102CE800E9F92078FFF717FFAEE0744DFFF732F8E7
:102CF8002178A5F58073002081420CBF294619462A
:102D0800FE22FFF7D7F9FF2101223020FFF722F832
:102D1800217805F50073002005F5807581420CBF08
:102D280019462946FE22FFF7C5F9BC2100223020AA
:102D3800FFF710F8BD2100223020FFF70BF8BE2165
:102D480000223020FFF706F8BF2100223020FFF7CD
:102D580001F8FF2101223020FEF7FCFF4821602204
:102D68003020FEF7F7FF482140223020FEF7F2FF1F
:102D7800492102223020FEF7EDFF642006F084F995
:102D8800482160223020FEF7E5FF4921002230204B
:102D9800FEF7E0FF1E2006F077F948214022302098
:102DA800FEF7D8FF1E2006F06FF948216022302078
:102DB800434DFEF7CFFFFF2102223020FEF7CAFF66
:102DC8002178A5F58073002081420CBF2946194659
:102DD800FE22FFF76FF9FF2103223020FEF7BAFF2A
:102DE800217805F5807305F50072002081420CBF3B
:102DF80011461946FE22FFF75DF9FF210422302013
:102E0800FEF7A8FF217805F5407305F580620020DC
:102E180081420CBF11461946FE22FFF74BF9FF21EC
:102E280005223020FEF796FF217805F5C0630020C3
:102E380005F5A06581420CBF19462946FE22FFF719
:102E480039F90020FFF738FDFF2100223020FEF776
:102E580081FF102190223020FEF77CFF1421902260
:102E68003020FEF777FF1A2111223020FEF772FF7B
:102E78001B2111223020FEF76DFFFF210322302095
:102E8800FEF768FF01210B223020FEF763FFD921EE
:102E9800B4223020FEF75EFFFF2104223020FEF727
:102EA80059FF30204221C322FEF754FFBDE83840C5
:102EB800044812F071BA00BFD6E90108D6F5010836
:102EC800D6F90108D600020810B5FF2104460122F0
:102ED8003020FEF73FFF22463020C021BDE81040D9
:102EE800FEF738BF08B5FF2103223020FEF732FF76
:102EF8002C2108223020FEF72DFFFF210022302050
:102F0800FEF728FFBDE8084030207821AA22FEF706
:102F180021BF08B5FF2101223020FEF71BFF012148
:102F280008223020FEF716FF022108223020FEF783
:102F380011FF032108223020FEF70CFF042108228C
:102F48003020FEF707FF052108223020FEF702FF98
:102F5800402108223020FEF7FDFE412108223020C2
:102F6800FEF7F8FE422108223020FEF7F3FE432147
:102F780008223020FEF7EEFE222103223020FEF741
:102F8800E9FE3B2140223020FEF7E4FE2321002207
:102F98003020FEF7DFFE312182223020FEF7DAFEF4
:102FA800BDE80840302039210122FEF7D3BE00BF1A
:102FB80010B5064C4FF4004120460BF03CF9204672
:102FC8004FF48041BDE810400BF035B9000C0140CA
:102FD800F7B50023ADF8063003788578002B14BFC9
:102FE8000326002645B9B54802210BF010F901283F
:102FF80014BF0025022525E0012D23D0022D14D071
:10300800032D14D0042D14D0052D14D0062D14D062
:10301800072D14D0A94802210BF0F9F8012810D087
:10302800002E14BF0D250C250CE004250AE005250B
:1030380008E0062506E0072504E0082502E0092542
:1030480000E00A25FFF7B4FF322006F01DF8BDF8AE
:103058000630852B04D00DF1060002F02FFFF6E7AD
:10306800002003F057FD02F04CFF94484FF4004154
:103078000BF0DFF84FF4804190480BF0DAF80A20A3
:1030880006F002F8012003F0DFFC0121102003F014
:1030980021FD042003F0E8FD092003F0F3FD884832
:1030A80008F011FF4FF4814008F025FF08F039FFC0
:1030B800002002F0CBFC002005F0B3F8002002F05D
:1030C800F2FD002002F010FE002002F03CFE00207D
:1030D80002F05AFE002002F08BFD002002F0BAFD3B
:1030E800002002F0C5FD202002F094FD0120754C5F
:1030F80002F09FFD002002F0C5FC002002F09BFEBC
:1031080008F059F94FF4C2720021204612F0A6F8CF
:103118000021204602F0CBFB0021204602F0CCFB28
:103128000021204602F0CDFB2046002102F0CEFB14
:10313800012363700323A3700023E3702371062225
:10314800402325726272A4F846301EB1032E04D1C2
:10315800102300E00F2384F84430782184F84A10C3
:1031680084F886102821802384F8C6100C210026B4
:10317800012784F8452084F84830682084F84B30CB
:1031880084F8843084F8873084F84C3084F84D30E3
:1031980084F84E3084F84F3084F8503084F8513039
:1031A8002577627784F880104022022184F88830DD
:1031B80084F8893084F88A3084F88B3084F88C302D
:1031C80084F88D3010251223E283A4F8822084F835
:1031D800811084F8490084F8850084F8C47084F864
:1031E800C560A4F8C86084F8BC70A4F8706135485C
:1031F800A4F8725184F8753140F64833A4F8763152
:1032080084F8746107F08EFD2E48277003F0EBF800
:103218002D4840F23B13038040F2951383805A23D4
:10322800314643809623C38008F008FB3146304678
:1032380008F050FB25494FF440430B801F480323F7
:10324800CD708B700AF08DFF214AFF231370214A3D
:10325800217A1370204A21481170214A617A13702B
:10326800204A27701170204A94F8441013701F4A9E
:1032780011701F4A94F8451013701E4A11701E4AA7
:10328800217F13701D4A11701D4A617F13701D4AFA
:1032980011701D4A94F8801013701C4A11701C4A52
:1032A80094F8811013701B4A11701B4A13706279CD
:1032B8001A4B1A7012F070F803B0F0BD000C014000
:1032C800808080007C11002068110020EE0F002013
:1032D800121300200B13002005130020F40002082D
:1032E8000613002002130020661100200D13002091
:1032F8000913002070110020011300200E13002074
:10330800101300200A130020041300206411002069
:10331800031300206511002000130020071300206C
:1033280013B51A4C0121204603F02EFC012003F0AE
:10333800F1FB237843B3204603F055F8144B9B78F0
:10334800082B02D1012002F0C6FA0224A521082286
:1033580023460094C22007F045FF0123009340F262
:1033680045110822C22007F03DFF002300934621A3
:1033780003222346C02007F035FF0094C0204721D0
:103388000E22234607F02EFF02B010BD7C1100204C
:1033980069100020014807F06CBA00BF7C110020BA
:1033A8002DE9F04FB14C85B010230C26E370A670C0
:1033B80002F0BEFF8003AE4DA0F56068A0F594470B
:1033C8004FF46061AB4A404608F078FF00211422B0
:1033D800284611F043FF4FF4967B1F234FF4617288
:1033E8004FF4C07A4FF05009AB716A80A5F804B069
:1033F800A5F808A0A5F80A90EF60002128460393D5
:1034080008F016FE1422002105F1A00011F026FF95
:10341800039B082185F8A6304FF4C873A5F8A2309D
:10342800A5F8A4B0A5F8A8A0A5F8AA90C5F8AC700E
:1034380005F1A00008F0FCFD324600218E4811F08D
:103448000DFF00218C4808F0B4FE8C4B002140226F
:10345800894808F026FF32460021894811F0FEFE0F
:103468000221874808F0A5FE2022864B00218448C7
:1034780008F017FF00262946204626706670C4F813
:10348800048005F01DFE05F1A001204605F018FE98
:103498007D4B7E491A8809887D4B7E481B880091A0
:1034A8007D4911F0F9FF7D4B7D481A887D4B7E4997
:1034B8001B8811F0F1FF2673764F267B07F1380041
:1034C80012F010F88642694D034608D2374497F83F
:1034D8003820AB19203A01365A732E73ECE7502284
:1034E80000200092DBB2014605F10D0205F0ACFEAA
:1034F80000232B736D4811F0F5FF267BC0F12003E4
:103508009E425A4D05D2AB19002201365A732E73CA
:10351800F0E7C1B20026C1F120030096304605F15C
:103528000D02DBB205F090FE5A4F2E73384611F0AB
:10353800D9FF267B4D4D8642034605D2BA5DAB19AD
:10354800203A5A730136EFE750220092DBB203208B
:10355800002105F10D0205F077FE00232B734D487D
:1035680011F0C0FF267BC0F120039E423F4D05D2DB
:10357800AB19002201365A732E73F0E7C1B2C1F1BC
:10358800200300260096032005F10D02DBB205F0AA
:103598005BFE404F2E7307F11C0011F0A3FF267B42
:1035A800324D8642034606D237443A7FAB19203A59
:1035B8005A730136EDE750220092DBB20420002155
:1035C80005F10D0205F040FE00232B73344811F07D
:1035D80089FF267BC0F120039E42244D05D2AB19FA
:1035E800002201365A732E73F0E7C1B2C1F12003ED
:1035F800002605F10D02DBB20096042005F024FE3A
:103608002B484FF480710AF002FE01282E7340F017
:10361800C280204F267B07F1550011F063FF8642D8
:10362800124D034608D2374497F85520AB19203A73
:1036380001365A732E73ECE750220092DBB2022057
:10364800002105F10D0205F0FFFD00232B73194839
:1036580011F048FF267BC0F120039E42034D2BD278
:10366800AB19002201365A732E73F0E71C0F0020A5
:10367800381300201201020814130020120F020848
:103688002C130020520F0208160000201A000020F8
:10369800180000201C000020D2E70208080F0020B4
:1036A800380000200A0F0020E5E702085400002037
:1036B8000010014071000020C1B2C1F120030026B2
:1036C80005F10D02DBB20096022005F0BDFD8C4825
:1036D8004FF400710AF09BFD01282E732DD1894FFC
:1036E800267B07F1720011F0FDFE8642864D0346E7
:1036F80008D2374497F87220AB19203A01365A732A
:103708002E73ECE750220092DBB20120002105F174
:103718000D0205F099FD00232B737C4811F0E2FEA1
:10372800267BC0F120039E42774D80F0CE80AB19F6
:10373800002201365A732E73EFE7724F267B07F18A
:103748008F0011F0CFFE86426F4D034608D23744F2
:1037580097F88F20AB19203A01365A732E73ECE78D
:1037680050220092DBB20120002105F10D0205F084
:103778006BFD00232B73664811F0B4FE267BC0F165
:1037880020039E42604D80F0A080AB1900220136D4
:103798005A732E73EFE75B4F267B07F1AB0011F0EE
:1037A800A1FE8642584D034608D2374497F8AB200D
:1037B800AB19203A01365A732E73ECE75022009267
:1037C800DBB20220002105F10D0205F03DFD0023CA
:1037D8002B73504811F086FE267BC0F120039E42D1
:1037E800494D05D2AB19002201365A732E73F0E702
:1037F800C1B2C1F12003002605F10D02DBB200962B
:10380800022005F021FD3E484FF400710AF0FFFC4C
:1038180001282E732CD13B4F267B07F1720011F043
:1038280061FE8642384D034608D2374497F8722025
:10383800AB19203A01365A732E73ECE750220092E6
:10384800DBB20120002105F10D0205F0FDFC00238B
:103858002B732E4811F046FE267BC0F120039E42B2
:10386800294D32D2AB19002201365A732E73F0E774
:10387800244F267B07F18F0011F034FE8642224D3B
:10388800034608D2374497F88F20AB19203A0136FF
:103898005A732E73ECE750220092DBB2012000210C
:1038A80005F10D0205F0D0FC00232B73184811F028
:1038B80019FE267BC0F120039E42134D05D2AB1999
:1038C800002201365A732E73F0E7C1B2C1F120030A
:1038D8000022DBB20092012005F10D0205F0B4FCD4
:1038E80001210A460C4808F097FC01210B4808F012
:1038F8003AFC0B48012105B0BDE8F04F08F033BC95
:10390800001001401C0000201C0F00208E00002029
:10391800AB000020C700002014130020381300203B
:10392800D8130020F0B585B002F002FD8603344DAF
:10393800A6F5584420464FF45841324A08F0BEFCD8
:1039480028460021142211F089FC2B464FF42062EE
:1039580023F83C291F2283F842206422DA873C227C
:10396800A3F840204FF4A062A3F844204FF47072EB
:10397800A3F84620A6F56412A2F5C0529A64284618
:10398800032108F055FB20485022902780264286C4
:103998008786C68684632946303005F0BBFC002440
:1039A80002A96846ADF80040ADF80240ADF80470D1
:1039B800ADF80660ADF80840ADF80A40ADF80C70F7
:1039C800ADF80E6005F03AFD4FF4F07302A96846B1
:1039D800ADF80830ADF80040ADF80240ADF804701D
:1039E800ADF80660ADF80A40ADF80C70ADF80E60A1
:1039F80005F024FD2846012108F0B5FB05B0F0BD0F
:103A080074130020720F02081C0F00202DE9F041EA
:103A180002F08EFC2B4D044600212846142211F09A
:103A28001DFC2B464FF4407223F85029A4031F2293
:103A380083F85620A4F5F0243C22A3F85420DC6532
:103A48004FF4F072204CA3F858204FF064084FF45C
:103A5800007204F14006A3F85280A3F85A202846C1
:103A6800042108F0E5FA0C223046002111F0F6FB9B
:103A78004023294630468027A4F8483005F016FD33
:103A88002823304648F28001A4F84030A4F8423098
:103A9800A4F84470A4F8467005F086FDC8233046A3
:103AA8004FF47F01A4F84080A4F84230A4F8447091
:103AB800A4F8467005F078FD28460121BDE8F041DC
:103AC80008F051BB881300201C0F002010B5B0F877
:103AD800E63013F0100FB0F8CA3014BF23F001031A
:103AE80043F00103A0F8CA3090F8DC3003F0FB0281
:103AF800012AB0F8CA2001D00F2B02D142F00202ED
:103B080001E022F00202A0F8CA20B0F81211B0F8C1
:103B18001A21B0F8CA40B1EB420FCCBF44F01804E8
:103B280024F01804A0F8CA40B0F8CA4091428CBFEB
:103B380044F0200424F02004A0F8CA40A3F10E04A5
:103B4800012CB0F8CA40A3F1100394BF44F4807468
:103B580024F48074A0F8CA40012BB0F8CA3094BF8E
:103B680043F4007323F40073A0F8CA30B0F8CA30E5
:103B7800DC0704D5914202D843F0400301E023F06A
:103B88004003A0F8CA30B0F8CA2090F8443012F4C4
:103B9800807F03D013B942F4006201E022F400628E
:103BA800A0F8CA20A3F10F02022AB0F8C82002D94F
:103BB800183B022B02D842F0080201E022F008026A
:103BC800A0F8C820002010BDF0B5B0F8E63089B0E4
:103BD80003F40067BFB2064637B913F4807F194A69
:103BE800194B08BF134600E0184B6C4603F1200E32
:103BF80018685968254603C5083373452C46F7D11C
:103C0800002F0CBF4FF4FC734FF4FE73ADF81E3059
:103C1800D6F8EC3053B16D4603F1200618685968A0
:103C28002C4603C40833B3422546F7D10A216A4615
:103C38002023C22007F010F9003018BF012009B076
:103C4800F0BD00BF9AF202085AF202089AF102087F
:103C580013B5C3780446052B05D1B0F8E63043F414
:103C68000073A0F8E630B4F82031B3F5C06F05D979
:103C7800B4F8E63043F40073A4F8E630B4F8E6305C
:103C8800DA060DD5B4F82221B2F5876F08D1B4F859
:103C98001A21B2F5107F04BF43F40073A4F8E6308C
:103CA80094F8DC300E3B012B05D8B4F8E63043F429
:103CB8000073A4F8E630B4F8E630C22083F4007349
:103CC800C3F34023009340210822012307F08AFA16
:103CD80008B101201CE0B4F8E630C220C3F3402349
:103CE800009340F205210822012307F07BFA0028FF
:103CF800EFD1B4F8E630C220C3F3402300934FF469
:103D080002710E22012307F06DFA003018BF01205E
:103D180002B010BD2DE9F74301290CBF00F10804DA
:103D280000F11C0423780646262B0D4600F2688114
:103D3800B54A02EBC3021368A36053682278E360B4
:103D48006389112A23F488539BB2638110D8012117
:103D580001FA02F212F4703F07D112F4705F04D135
:103D6800120705D043F4805301E043F4885363817C
:103D78006389627823F438539BB26381092A2DD86A
:103D8800DFE802F005080C0F12171C1F222743F466
:103D9800007301E043F4206363811FE043F4606330
:103DA80004E043F4606306E043F440636381302336
:103DB80015E043F440636381102310E043F460632B
:103DC80004E043F4606306E043F440636381202326
:103DD80005E043F440636381A02300E00023628888
:103DE800C5EB453912F0080F62890CBF002040204E
:103DF800C2F3001712F0010F02F0020247EA0207AD
:103E080047EA03070CBF0021042107430F434FEA89
:103E1800C9091FFA87F81FFA89F94FEA181309F137
:103E28000C02009392B2C2200221042307F0DAF9AF
:103E380008B10120E5E008F0070309F1080900933B
:103E48001FFA89F2C2200221032307F0CBF90028C8
:103E5800EFD163880121C3F380130093C2202A465F
:103E68000B4607F0BFF90028E3D1638805F1020883
:103E7800C3F340131FFA88F801210093C220424679
:103E88000B4607F0AFF90028D3D16FF0180169434A
:103E980023891A310093C22004220C2307F0A2F9C7
:103EA80001460028C5D1638805EB450203F00703E6
:103EB80008320093C22092B2032307F093F9014617
:103EC8000028B6D16388C220C3F30013009342468A
:103ED800012307F087F90028ABD1F378C5F1070271
:103EE800043B012B8CBFC7F340170327520092B243
:103EF8000097C2204021022307F074F9002898D1C6
:103F08006389C22083F40073C3F340230093C5F18F
:103F180021010D22012307F065F9002889D1E388E2
:103F2800EA009B09009392B2C2200321072307F0FD
:103F380059F900287FF47DAFA288E388C2F309020B
:103F480042EA8322C220C5F1050192B207F001F8C6
:103F580000287FF46EAFA388C5F104079B0A7F0091
:103F680000930D22C2203946032307F03BF902468D
:103F780000287FF45EAFA389C220009339460D2341
:103F880007F030F900287FF454AF6900C220C1F16E
:103F98000901E28906F0DDFF00287FF44AAFF378D3
:103FA800C220052B14BF0023022300931B210822E3
:103FB800022307F017F900287FF43BAFF378052BAD
:103FC80003D0042B14BF00230F230093C2201E210B
:103FD8000822042307F006F900287FF42AAFF378B3
:103FE800C220043B012B8CBF0023012300931E2118
:103FF8000422012307F0F6F8003018BF012000E082
:10400800032003B0BDE8F0837204030870B590F88C
:1040180044302C2B29D8446E1CB9154A4C2404FB77
:104028000324B0F85630002513F4006F08BF0024AD
:1040380013F4805F08BF0024AEB214B134F8152021
:1040480000E02246C220AE2106F083FF08B101201D
:1040580070BDC220AF2146F0800206F07AFF00282A
:10406800F5D10135252DE7D170BD032070BD00BF06
:10407800AA05030837B50446B0F8E6500021F03029
:10408800402211F0EBF8B4F8E830C5F34035A4F855
:104098000831B4F8EA30A4F80A31B4F8683023B12A
:1040A800B4F86A30003318BF012313F0FF0F07D0AC
:1040B800224652F8683FC4F808315368C4F80C31F6
:1040C800B4F8E020B4F80C311344A4F80C31B4F877
:1040D800E220B4F80E311344A4F80E31B4F8583085
:1040E800A4F81831B4F85A30A4F81A31B4F8783072
:1040F80023B1B4F87A30003318BF012313F0FF0F4F
:1041080007D0224652F8783FC4F818315368C4F8EB
:104118001C31E378052B04D1B4F818315B08A4F8F6
:104128001831B4F80821B4F81811B4F80A31A4F811
:10413800F4208A42A4F8F020E288A4F8F230A4F827
:10414800F63088BFA4F8F41032B1B4F8F4109142F4
:1041580034BF0021012100E0114611F0FF0F18BF04
:10416800A4F8F420B4F8F420A4F82231A4F8123109
:10417800B4F87030A4F82021A4F8102123B1B4F8C1
:104188007230003318BF012313F0FF0F07D0224607
:1041980052F8703FC4F810315368C4F81431B4F8B9
:1041A8001A31B4F81211A4F8FE30A4F80631B4F8A4
:1041B8000E31B4F81001B4F818219B09A4F8FA10CC
:1041C800A4F802110321A4F8F800A4F8FC20A4F82C
:1041D8000001A4F804210093C22005FA01F2072384
:1041E80007F000F808B10120E7E0B4F80C21B4F8B2
:1041F8000E31C2F3090242EA8322C220C5F1050149
:1042080092B206F0A6FE0028EDD1B4F80C21B4F85D
:10421800083102F47C42C5F1040143EAC202C2201B
:10422800490092B206F095FE0028DCD16FF0010338
:1042380003FB05F1C2200931B4F80A2106F089FE12
:104248000028D0D1C220322104F58872082306F054
:1042580003FE0028C7D1C220362104F58C7208233A
:1042680006F0FAFD0028BED1C2203A21B4F8F020A9
:1042780006F06FFE0028B6D1C2203C21B4F8F42025
:1042880006F067FE0028AED1C2203D21B4F8F62022
:1042980006F05FFE0028A6D1C2204FF4847104F115
:1042A800F802082306F0D8FD00289CD1C2204FF45C
:1042B800867104F58072082306F0CEFD002892D19D
:1042C800B4F810214FF4C073B2FBF3F103FB1121D2
:1042D8000C2289B2B1FBF2F302FB131292B202B9BB
:1042E800013B9BB2082B8CBF03F01F0308230093EC
:1042F800C22040F206210822052306F073FF002899
:104308007FF471AFB4F81021C023B2FBF3F103FBC3
:104318001121062289B2B1FBF2F302FB131292B209
:1043280002B9013B9BB2082B8CBF03F01F03082383
:104338000093C22040F206210022052306F052FF16
:1043480000287FF450AFB4F8E630DA0604D4B4F8A5
:1043580022315B08A4F82231B4F85630DB0604D4C5
:10436800B4F81A315B08A4F81A3194F84530063BC2
:10437800012B22D8B4F81821C220520092B236215B
:1043880006F0E7FD00287FF42EAFB4F8FC20C22029
:10439800520092B24FF4857106F0DBFD00287FF4DD
:1043A80022AFB4F80421C220520092B24FF48771B0
:1043B80006F0CFFD003018BF012003B030BDF0B5C6
:1043C80085B00D460446002101A80A2210F046FFD8
:1043D800012D08D004D3022D08D1D4F8D44007E029
:1043E800D4F8CC4004E0D4F8D04001E0D4F8D84068
:1043F8002F02224B47F08007002C08BF1C46BFB293
:10440800002504EBC5021068516801AB03C347EAF5
:104418000506B6B2C22040F23B11BDF80420ADF843
:104428000C6006F096FD08B1012025E0C2204FF48B
:104438009E71BDF8062006F08CFD0028F4D1C2203C
:1044480040F23D11BDF8082006F083FD0028EBD1AD
:10445800C2204FF49F71BDF80A2006F07AFD0028AB
:10446800E2D1C22040F23F11324606F072FD002828
:10447800DAD10135402DC4D105B0F0BD5AEB0208A0
:1044880037B5B0F81A31B0F8F22003EB4303B3EBB9
:10449800420F4FF0FF034FF00802044600934FF01D
:1044A800C2004FF480711346CCBF0A250F2506F0D1
:1044B80099FE08B101204EE000904FF48071C220AF
:1044C8000722012306F08EFE0028F3D100904FF456
:1044D8008071C2200222012306F084FE0028E9D15F
:1044E800B4F8F620B4F822319A4204D905F0030052
:1044F800C31E5842584180B2012200904FF4807187
:10450800C220134606F06EFE0028D3D1D4F8CC3072
:1045180043B9D4F8D0302BB9D4F8D43013B9D4F87F
:10452800D830C3B120460021FFF749FF0028C1D188
:1045380020460121FFF743FF0028BBD12046022176
:10454800FFF73DFF0028B5D120460321FFF737FFCD
:10455800003018BF012003B030BD2DE9F8431546DF
:104568003E4A01F00306148800F1F00714F0010F29
:104578000CBF4FF4807C4FF0800C022E10D0B0F8A6
:10458800E64004F40074002C0CBF0A2408240CBF75
:104598004FF03C0E4FF0400E012E06D1640804E0A7
:1045A80000F598774FF0400E0824B7F830807F8EDA
:1045B80008FB04F8B8FBFEF90EFB1988B8F1000FE8
:1045C8000CBFC84609F1010807FB08F7B7FBFCFE5A
:1045D8000CFB1E77C078002F0CBF77460EF1010741
:1045E80007F0010E04280EEB570701D1AD0003E0D8
:1045F800052802D105EB4505EDB27D43ADB25580E6
:104608001D449580C22001F2C1111A4606F0A1FC92
:1046180010B10120BDE8F883C22006F2C911BAB270
:1046280006F097FC0028F4D1082C0AD00A2C06D0F2
:10463800042C14BF4FF440604FF4006001E04FF4C5
:10464800806040EA080206F2CD1192B2C22006F05C
:1046580080FC003018BF0120BDE8F883680F0020F7
:104668002DE9F34190F8BC600446042E00F2AC81B9
:10467800B0F8CA3003F400639BB24BB1012380F851
:10468800BC30B0F8E63043F01003A0F8E63000E0A4
:104698001E4694F8BC20B4F8E630032A68D8DFE850
:1046A80002F00216364F03F01002002A0CBF062251
:1046B80003220CBF0221012184F8BE2084F8C02007
:1046C8000CBF6225312584F8BF10022218E003F0E0
:1046D8001002002A14BF0222062284F8BE204FF0DE
:1046E800000284F8BF200CBF0622022284F8C020F2
:1046F8004FF0020214BF202562250CBF114600218D
:1047080084F8C11084F8C22084F8C32035E003F08F
:104718001002002A14BF0322062284F8BE200CBF10
:10472800062103210CBF0222012284F8BF2084F84D
:10473800C12014BF3125622584F8C0100022E1E7AA
:1047480003F01002002A14BF022206220CBF062121
:10475800022184F8BE204FF0000284F8C01014BF74
:104768002025622584F8BF200CBF02211146C7E727
:1047780013F0100F14BF31256225E278042A1BD0EC
:10478800052A35D103F01002002A14BF032206229D
:1047980084F8BE204FF0000284F8BF200CBF062228
:1047A800032284F8C0204FF0020214BF312562258D
:1047B8000CBF1146002115E003F01002002A14BFB7
:1047C8000322062284F8BE200CBF022101210CBF5F
:1047D8000622032284F8C02014BF3125632584F8FB
:1047E800BF10022284F8C11084F8C22084F8C320C4
:1047F80003F488733BB9082305F00F0784F8C03029
:1048080047F0800700E02F4603230093C2201E21B3
:104818000022022306F0E6FC08B10120D5E047EAB1
:10482800052292B2C2201F2106F093FB02460028FF
:10483800F3D1C7F3031705F070053D430095C22077
:1048480040F20921082306F0CDFC0028E5D10090AC
:104858004FF4A271C2200B22052306F0C3FC0028E6
:10486800DBD104274FF4E0710097C2200C223B46AD
:1048780006F0B8FC01460028CFD194F8BE3094F871
:10488800BF2020461A44D2B20B46FFF766FE002826
:10489800C3D1B4F8C83094F8C02013F0100F0CBF7F
:1048A800012302235A434A4D2046B5F8028039466F
:1048B800D2B24346FFF751FE0028AED16F8820469A
:1048C8004744BFB2012194F8C1203B46FFF745FE9B
:1048D8000028A2D16B8820461F44BFB2022194F859
:1048E800C2203B46FFF739FE002896D16B88204648
:1048F8003B44062194F8C3209BB2FFF72EFE002804
:104908008BD1C22040F2D111082206F022FB0028E8
:1049180083D1C2204FF4E9714FF4885206F019FB95
:1049280000287FF47AAFC22040F2D311802206F02B
:1049380010FB00287FF471AFC2204FF4EA7142F2F5
:10494800AA2206F006FB00287FF467AFE77848F252
:10495800202344F22012C22040F2DD11042F08BFA8
:104968001A4606F0F6FA00287FF457AFE77848F2BF
:10497800200343F22002C2204FF4EF71042F08BF36
:104988001A4606F0E6FA00287FF447AFC2204FF433
:10499800FC71AA8806F0DDFA00287FF43EAFAA88E9
:1049A800C2200F3240F2F91192B206F0D2FA002872
:1049B8007FF433AFAB881033AB80B4F8CA301B0533
:1049C80003D584F8BC6000E0032002B0BDE8F081A4
:1049D800680F002037B50C1C18BF01240546009449
:1049E800C22040210522012306F0FCFB00284AD101
:1049F80014B1264B9B7900E0012301220093C220C9
:104A08004021134606F0EEFB00283CD16B7814B128
:104A180003F0010300E023460093C2204FF4A17184
:104A28000022012306F0DEFB68BB6B7814B1C3F3E8
:104A3800400300E0012301220093C2204FF4A1713A
:104A4800134606F0CFFBF0B9EB781CB1DA1E5342DF
:104A5800534100E023460093C2204FF4A27106227E
:104A6800012306F0BFFB70B90094C22040F2052173
:104A78000322012306F0B6FB28B9282003B0BDE8BD
:104A8800304004F001BB012003B030BD680F0020A6
:104A98001F4B2DE9F34115461A89074682420E46F7
:104AA8001C4605D15A898A4202D19B89AB422BD038
:104AB8004FF00108CDF80080C02020210022434695
:104AC80006F090FB90B9C0202C213A4606F041FA36
:104AD80060B9C0202E21324606F03BFA30B92A468A
:104AE800C020302106F035FA024608B101200CE05A
:104AF80000902021C020434606F074FB0028F5D121
:104B080027816681A58100E0002002B0BDE8F08120
:104B1800680F002070B5C36D8EB0044690F844202D
:104B28001BB9534B302101FB023302AD03F13006B0
:104B3800186859682A4603C20833B3421546F7D1A4
:104B4800B4F85620BDF82A3012F0100F0CBF4FF4FD
:104B5800004200221343ADF82A3094F84530063B52
:104B6800012B1DD8BDF80E305B00ADF80E30BDF836
:104B780030305B08ADF83030BDF810305B00ADF870
:104B88001030BDF812305B00ADF81230BDF81430AB
:104B98005B00ADF81430BDF816305B00ADF8163088
:104BA800E378042B0CD194F88030324A302101FB91
:104BB800032353F8040F9B880B90ADF8303010E0B6
:104BC800052B0ED1BDF80E305B08ADF80E30BDF8E0
:104BD80010305B08ADF81030BDF812305B08ADF846
:104BE8001230C220842102AA062306F035F908B142
:104BF80001203BE0C22088210DF10E021E2306F0A1
:104C08002BF90028F4D1012302220093C220972116
:104C1800134606F0E7FA0028EAD1B4F846304DF218
:104C2800010213F0400F08BF4FF45042C2209821F0
:104C380006F08FF90028DBD1C2209A21102206F055
:104C480088F90028D4D1C2209B2148F2800206F0BE
:104C580080F90028CCD1BDF82C00BDF82E10BDF885
:104C68003020FFF715FF003018BF01200EB070BDCF
:104C78004E0B03086E0B030837B5B0F8CA3006228E
:104C8800C3F38013009304464021C220012306F099
:104C9800A9FA0246D8B9B4F8CA30C22013F0400FB6
:104CA8000CBF02230323009340F20111032306F0F3
:104CB80099FA60B9B4F8CA30C22003F0010300932E
:104CC80040F205210722012306F08CFA08B10120E1
:104CD8004BE1B4F8CA30C22003F00103009340F25C
:104CE80005210622012306F07DFA0028EFD1B4F849
:104CF800CA30C22003F00103009340F205210422C8
:104D0800012306F06FFA0028E1D1B4F8CA30012275
:104D1800C3F380030093C22040F20521134606F036
:104D280061FA0028D3D1B4F8CA30C220C3F3C00353
:104D380000934FF402710D22012306F053FA002864
:104D4800C5D1B4F8CA30C22003F0010300934FF470
:104D580002710B22012306F045FA0028B7D1B4F8F6
:104D6800CA30C22003F0010300934FF402710A22F3
:104D7800012306F037FA0028A9D1B4F82221C2206D
:104D880002EB420240F25121C2F38F0206F0E1F831
:104D980000289CD1B4F8CA30C22003F00103009364
:104DA80040F26D210722012306F01CFA00288ED15B
:104DB800B4F8CA30DA051CD5B4F85630DB0618D575
:104DC800B4F81A31B3F5077F13D802250C220095E1
:104DD800C22040F249212B4606F004FA0246002878
:104DE8007FF475AF01230093C22040F252212B4675
:104DF80012E0012300930C22C22040F24921022331
:104E080006F0F0F9024600287FF461AF032300930F
:104E1800C22040F25221022306F0E4F900287FF470
:104E280056AFB4F8CA30C220C3F3C02300934FF47E
:104E380080710322012306F0D5F900287FF447AFDB
:104E4800B4F8CA30C220C3F3C02300934FF40271F0
:104E58000F22012306F0C6F900287FF438AFB4F812
:104E6800CA30C220C3F3C023009383210522012343
:104E780006F0B8F900287FF42AAFB4F8CA30062241
:104E880083F00803C3F3C0030093C22083210123E6
:104E980006F0A8F9024600287FF419AFB4F8CA3022
:104EA800C22013F4807F0CBF1423182300934FF4FF
:104EB8001671082306F096F9024600287FF407AF1A
:104EC800B4F8CA30C22013F4807F0CBF28231E23F5
:104ED800009340F25A21082306F084F900287FF451
:104EE800F6AE204694F8C41006F070FA00287FF455
:104EF800EEAE204694F8C51006F07BFA00287FF441
:104F0800E6AE204694F8C61006F0DEFB00287FF4D3
:104F1800DEAEB4F8C810204601F0010106F084FAAC
:104F280000287FF4D4AEB4F8C8102046C1F340017D
:104F380006F01EFC00287FF4CAAEB4F8C81020465C
:104F4800C1F3800106F047FC00287FF4C0AEB4F836
:104F5800C830C220C3F30013009340210422012368
:104F680006F040F9003018BF012003B030BDF0B59D
:104F780085B00646FD21C2200DF10E0205F064FF42
:104F880008B1012092E0BDF80E4096F88101220A8E
:104F9800C2F30111C4F3011302F0030204F0030485
:104FA800072838D8DFE800F037040D141B22292E13
:104FB80041EA841141EA830343EA0212ADF80E2064
:104FC80031E042EA041242EA831343EA81011FE016
:104FD80042EA840242EA831343EA011118E043EAF1
:104FE800840343EA821242EA011111E043EA0413FE
:104FF80043EA821242EA81010AE0120142EA83038B
:105008001C4303E01B0143EA8202144344EA811172
:10501800ADF80E1007E041EA841141EA820242EA43
:105028000313ADF80E30BDF80E30C22000934FF4D4
:10503800A5710022082306F0D5F80028A1D1BDF8F3
:105048000E4096F88261C4F3011004F00305C4F31E
:105058008102013EC4F38714A1010301072E12D86F
:10506800DFE806F011040608110C110C11430BE0DF
:10507800014309E00C4344EA820207E041EA840460
:105088002043034303E0294341EA82021343ADF876
:105098000E30BDF80E30C22000934FF4A5710022E7
:1050A800082306F09FF8003018BF012005B0F0BDB6
:1050B80070B588B028B10E4B0E4A012808BF1346B8
:1050C80000E00D4B6C4603F1200618685968254628
:1050D80003C50833B3422C46F7D10A216A46202378
:1050E800C22005F0B9FE003018BF012008B070BD1D
:1050F8009AF202085AF202089AF102082DE9F041E0
:10510800B0F8E6208EB012F4807F0346B0F856203F
:1051180006D014050DD512F4807FB54CB54A05E0CC
:10512800100508D512F4807FB24CB34A18BF144654
:1051380002E0B24C00E0B24C06AD04F120072A466A
:10514800206861682E4603C60834BC423546F7D14C
:105158001C6E54B1164604F1200720686168354674
:1051680003C50834BC422E46F7D193F84B00A54D31
:10517800A54C93F84A1093F8496093F8487034F9AD
:10518800104035F91000002532F805C00DF1040E65
:1051980025F80EC00235122DF6D1BDF9045075431D
:1051A8004FEAE51EBEF5006F05DA1EF5006F05DB58
:1051B800CEF30B0E04E040F2FF7E01E04FF4006EE8
:1051C800ADF818E0BDF908E0BDF9068000FB0EFC5B
:1051D80004FB08CC01FB0CFC4FEA6C4CBCF5006FDF
:1051E80005DA1CF5006F05DBCCF30B0C04E040F28C
:1051F800FF7C01E04FF4006C04FB0EFE00FB18EE90
:1052080001FB0EFE4FEA6E4EBEF5006FADF81AC0F8
:1052180005DA1EF5006F05DBCEF30B0E04E040F255
:10522800FF7E01E04FF4006EADF81CE0BDF90AE026
:1052380006FB0EFE4FEAEE1EBEF5006F05DA1EF500
:10524800006F05DBCEF30B0E04E040F2FF7E01E0B9
:105258004FF4006EADF81EE0BDF90EE0BDF90C800C
:1052680000FB0EFC04FB08CC01FB0CFC4FEA6C4C69
:10527800BCF5006F05DA1CF5006F05DBCCF30B0CF1
:1052880004E040F2FF7C01E04FF4006C04FB0EFEEA
:1052980000FB18EE01FB0EFE4FEA6E4EBEF5006FE6
:1052A800ADF820C005DA1EF5006F05DBCEF30B0E56
:1052B80004E040F2FF7E01E04FF4006EADF822E01A
:1052C800BDF910E006FB0EF6F611B6F5006F05DA2B
:1052D80016F5006F05DBC6F30B0604E040F2FF7617
:1052E80001E04FF40066BDF914C0ADF8246000FB7E
:1052F8000CF6BDF912E004FB0E664E437614B6F5C3
:10530800006F05DA16F5006F05DBC6F30B0604E03F
:1053180040F2FF7601E04FF4006604FB0CF400FB5A
:105328001E4041434914B1F5006FADF8266005DA17
:1053380011F5006F05DBC1F30B0104E040F2FF71CA
:1053480001E04FF40061ADF82810BDF82A10803F45
:1053580008B27F003844B0F5006F06DA10F5006F28
:1053680006DB3944C1F30B0104E040F2FF7101E0B0
:105378004FF40061ADF82A10B3F85610090579D436
:1053880093F84D1069438913B1F5006F05DA11F5EB
:10539800006F05DBC1F30B0104E040F2FF7101E08F
:1053A8004FF40061ADF8181093F84E106943891353
:1053B800B1F5006F05DA11F5006F05DBC1F30B01DC
:1053C80004E040F2FF7101E04FF40061ADF81E10F7
:1053D80093F84C104D43AD13B5F5006F05DA15F58C
:1053E800006F13DBC5F30B0512E040F2FF750FE009
:1053F8005AF102089AF102087AF10208DAF1020871
:105408001AF202085AED02085AEF02084FF4006532
:1054180093F85010BDF83000803900EB4101B1F528
:10542800006FB4BFC1F30B0140F2FF71ADF830104B
:1054380093F85110BDF83200803900EB4101B1F505
:10544800006FB4BFC1F30B0140F2FF7193F84F3006
:10545800ADF83210BDF83410803B01EB4303B3F5CF
:10546800006FB4BFC3F30B0340F2FF73ADF82450D1
:10547800ADF8343072212023C22005F0EDFC003055
:1054880018BF01200EB0BDE8F08107B5B0F8E620DE
:10549800B0F8DE30C2F3403211B143F0080301E046
:1054A80023F00803A0F8DE30B0F8DE30D200C3F3F2
:1054B800C0030093022106320123C22005F092FEA8
:1054C800003018BF012003B05DF804FB07B5B0F841
:1054D800E620B0F8DE30C2F3403211B143F02003C9
:1054E80001E023F0200301F00101A0F8DE30009173
:1054F800012102320B46C22005F074FE003018BFAD
:10550800012003B05DF804FB07B5B0F8E620B0F859
:10551800DE30C2F3403211B143F0400301E023F022
:10552800400301F00101A0F8DE30009101210B4693
:10553800C22005F057FE003018BF012003B05DF807
:1055480004FBB0F8DE2013B5B0F8E63001F007042C
:1055580022F00702C3F340332243A0F8DE205A00AA
:105568001A440091083200210323C22005F03AFEB4
:10557800003018BF012002B010BD07B5B0F8E62012
:10558800B0F8DE30C2F3403211B143F0100301E04D
:1055980023F0100301F00101A0F8DE30023200917F
:1055A80001230021C22005F01DFE003018BF012094
:1055B80003B05DF804FBB0F8E63007B5C3F340323A
:1055C80011B143F0010301E023F00103A0F8E63034
:1055D80053039A1AD20001F001010A32009192B2E3
:1055E80002210123C22005F0FDFD003018BF012073
:1055F80003B05DF804FBB0F8E63007B5C3F34032FA
:1056080011B143F0020301E023F00203A0F8E630F1
:1056180053039A1AD20001F001010932009192B2A3
:1056280002210123C22005F0DDFD003018BF012052
:1056380003B05DF804FB73B5B0F8E650A0F8E010CD
:1056480093090C46C5F340350321A0F8E22016461D
:105658000093C22005FA01F2072305F0C3FD08B143
:10566800012018E0C4F3090343EA8622C220C5F1E9
:10567800050192B205F06DFC0028F1D1C5F10401D5
:10568800A40A0094C22049000D22032305F0AAFDB4
:10569800003018BF012002B070BDC0F8EC10FEF752
:1056A80093BA07B5B0F8463011B143F0100301E0E2
:1056B80023F0100301F00101A0F846300422009104
:1056C8000123A221C22005F08DFD003018BF012062
:1056D80003B05DF804FB07B5B0F8463011B143F0EC
:1056E800200301E023F0200301F00101A0F8463077
:1056F800042200910123A321C22005F073FD00308C
:1057080018BF012003B05DF804FB07B5B0F85630A8
:10571800082223F4406343EA8123A0F8563000911D
:105728000223A021C22005F05DFD003018BF012032
:1057380003B05DF804FB07B5B0F856300222C3F396
:105748000D0343EA8133A0F8563000911346A02197
:10575800C22005F047FD003018BF012003B05DF8F6
:1057680004FB07B5B0F85630002223F4405343EA4F
:105778000133A0F8563000910223A021C22005F081
:1057880031FD003018BF012003B05DF804FB07B5F8
:10579800B0F8563011B143F0800301E023F08003E4
:1057A80001F00101A0F85630072200910123A02141
:1057B800C22005F017FD003018BF012003B05DF8C6
:1057C80004FB07B5B0F8563011B143F0040301E00B
:1057D80023F0040301F00101A0F8563005220091DE
:1057E8000123A021C22005F0FDFC003018BF0120D4
:1057F80003B05DF804FB07B5B0F8563011B143F0BB
:10580800080301E023F0080301F00101A0F8563075
:10581800042200910123A021C22005F0E3FC0030FE
:1058280018BF012003B05DF804FB80F84810FFF7AB
:1058380065BC80F84910FFF761BC80F84A10FFF793
:105848005DBC80F84B10FFF759BC80F84C10FFF78F
:1058580055BC80F84D10FFF751BC80F84E10FFF78B
:105868004DBC80F84F10FFF749BC80F85010FFF787
:1058780045BC80F85110FFF741BC0166FFF73EBCFC
:10588800C165FFF747B94166FEF7C0BBB0F82031E4
:1058980000220B80B0F82231CA808A80B0F8E62056
:1058A8004B80D2065CBF5B004B8000207047C0F87D
:1058B800CC100021FEF783BDC0F8D0100121FEF7FF
:1058C8007EBDC0F8D4100221FEF779BDC0F8D8100B
:1058D8000321FEF774BD07B5012814BF0123032374
:1058E800009340F249210C220223C22005F07AFCE1
:1058F800003018BF012003B05DF804FB07B503238F
:10590800009048210A22C02005F06CFC003018BF26
:10591800012003B05DF804FB07B50323009049217B
:105928000A22C02005F05EFC003018BF012003B039
:105938005DF804FB07B50323009024210022C02052
:1059480005F050FC003018BF012003B05DF804FBDF
:1059580007B50323009024210422C02005F042FC4F
:10596800003018BF012003B05DF804FB07B5012320
:10597800009047210422C02005F034FC003018BFF5
:10598800012003B05DF804FB07B50123009047210F
:105998000522C02005F026FC003018BF012003B006
:1059A8005DF804FB07B50223009048210822C020B7
:1059B80005F018FC003018BF012003B05DF804FBA7
:1059C80007B50223009048210322C02005F00AFCF5
:1059D800003018BF012003B05DF804FB07B50223AF
:1059E800009049210822C02005F0FCFB003018BFB8
:1059F800012003B05DF804FB07B50223009049219C
:105A08000322C02005F0EEFB003018BF012003B0D0
:105A18005DF804FB07B50323009048210D22C02040
:105A280005F0E0FB003018BF012003B05DF804FB6F
:105A380007B50323009049210D22C02005F0D2FBB1
:105A4800003018BF012003B05DF804FB10B50C4C02
:105A58002221002818BF04462246C220102305F040
:105A6800FBF950B92C2104F110020823C22005F0DB
:105A7800F3F9003018BF012010BD012010BD00BF90
:105A8800E2EA020813B500F0010403220094C220E0
:105A98002A21012305F0A6FB024648B90094C2203A
:105AA8002A21012305F09EFB003018BF012000E0E9
:105AB800012002B010BDB0F8F020B0F8F43010B5F5
:105AC8009A4214D9A3F58061B1F5D07F11D3A3F51B
